:0400000008EF38F0DD
:107010004A6A496A0001ACEF38F001B002D08090B2
:1070200001D0808003B002D0809201D08082120013
:1070300083BA1DEF38F01FEF38F025EF38F0000E5F
:10704000026E010E016E36EF38F083AA2AEF38F097
:107050002CEF38F032EF38F0000E026E020E016EA7
:1070600036EF38F0000E026E000E016E1200000EB8
:10707000066E000E056E000E046E000E036E43EFEA
:1070800038F0034A042A0150035C02500458D8A087
:107090004CEF38F04EEF38F041EF38F0054A062A51
:1070A000C60E055C020E0658D8A059EF38F05BEF0B
:1070B00038F03BEF38F0120001B002D0839401D0D9
:1070C000838403B002D0839601D083860B0E066EB4
:1070D000260E056E5E0EE82EFED7052EFCD7062E78
:1070E000FAD783B876EF38F07AEF38F0056A052AD8
:1070F0007BEF38F0056A0550496E4A6A49C001F0D5
:107100004AC002F0120094809482959095929594D2
:1071100095969588958A929092929294929692984A
:10712000929A93909392939493969398939A939C14
:10713000939E959E9690969283808392838E3D0E29
:10714000026EE10E016E400EE82EFED7012EFCD736
:10715000022EFAD7839E120083EC38F0000E026EE6
:10716000010E016E000E046E000E036E0DEC38F081
:1071700082B0BDEF38F0BFEF38F0B8EF38F0000E56
:10718000026E000E016E000E046E000E036E0DEC1A
:1071900038F08BEC39F007C045F008C046F018EC29
:1071A00038F001C047F002C048F045C041F046C089
:1071B00042F047C043F048C044F02AEC39F0AEEF4B
:1071C00038F000EF00F0000E026E010E016E000EAE
:1071D000046E000E036E0DEC38F0CB0E026E200E26
:1071E000016E37EC38F03D043E10D8A4FAEF38F0C9
:1071F000FCEF38F013EF39F0000E336E780E326E7C
:10720000000E356E000E346E0DEC3BF00B0E406E32
:10721000260E3F6E5E0EE82EFED73F2EFCD7402E88
:10722000FAD729EF39F0020E3D183E10D8A41BEF13
:1072300039F01DEF39F029EF39F0000E336E780E7A
:10724000326E000E356E010E346E0DEC3BF006EF23
:1072500039F0120041044210D8A431EF39F033EF75
:1072600039F044EF39F043044410D8A43AEF39F030
:107270003CEF39F044EF39F041C03DF042C03EF000
:1072800078EC3AF08AEF39F041044210D8A44BEF81
:1072900039F04DEF39F05FEF39F0020E431844102A
:1072A000D8A455EF39F057EF39F05FEF39F041C00E
:1072B0003DF042C03EF0E3EC38F08AEF39F0020EC8
:1072C00041184210D8A467EF39F069EF39F074EF34
:1072D00039F043044410D8A470EF39F072EF39F05C
:1072E00074EF39F03CEF39F0020E41184210D8A487
:1072F0007CEF39F07EEF39F08AEF39F0020E431857
:107300004410D8A486EF39F088EF39F08AEF39F0CD
:1073100057EF39F01200000E026E000E016E000EE3
:10732000046E000E036E5CEC38F001C00BF002C07E
:107330000CF00B0E0A6E260E096E5E0EE82EFED7BE
:10734000092EFCD70A2EFAD7000E026E000E016E2F
:10735000000E046E010E036E5CEC38F001C00DF0FF
:1073600002C00EF00B500D5C0C500E58D8B0BBEFA5
:1073700039F0BDEF39F0D1EF39F08480290E0A6E73
:10738000960E096E7F0EE82EFED7092EFCD70A2E28
:10739000FAD700F08490000E086E010E076EF4EF2D
:1073A00039F00D500B5C0E500C58D8B0DAEF39F0B4
:1073B000DCEF39F0F0EF39F08482290E0A6E960E78
:1073C000096E7F0EE82EFED7092EFCD70A2EFAD7BB
:1073D00000F08492000E086E020E076EF4EF39F092
:1073E000000E086E000E076E12002A342B34316E28
:1073F0003150D8A4FEEF39F000EF3AF00AEF3AF03E
:10740000000E286E000E296E000E2A6E000E2B6EE6
:1074100077EF3AF028C02CF029C02DF02AC02EF0CA
:107420002BC02FF0200E1AEF3AF0D8902F322E32C8
:107430002D322C32E82E15EF3AF02C50306E2A8E79
:10744000FF0E2816FF0E2916FF0E2A16000E2B1609
:10745000960E315E31BE31EF3AF02FEF3AF047EF42
:107460003AF03150800A970FD8B039EF3AF03BEF3D
:107470003AF03DEF3AF000EF3AF0D8902B322A3252
:1074800029322832313E3DEF3AF05FEF3AF01F0EDD
:1074900031644DEF3AF04FEF3AF057EF3AF000EF2A
:1074A0003AF0D890283629362A362B363106315014
:1074B000D8A45DEF3AF05FEF3AF051EF3AF0305078
:1074C000D8B465EF3AF067EF3AF06FEF3AF02B1E61
:1074D0002A1E291E286C000E29222A222B2228C0AF
:1074E00028F029C029F02AC02AF02BC02BF0120066
:1074F0003D043E10D8A47FEF3AF081EF3AF0C7EF99
:107500003AF0000E336E2D0E326E000E356E000E08
:10751000346E95EC3CF00B0E406E260E3F6E5E0E08
:10752000E82EFED73F2EFCD7402EFAD7000E026E73
:10753000010E016E000E046E000E036E0DEC38F0AD
:10754000610E026EA80E016E37EC38F0000E026E6E
:10755000000E016E000E046E000E036E0DEC38F08E
:10756000000E336E2D0E326E000E356E010E346E2F
:1075700095EC3CF00B0E406E260E3F6E5E0EE82E34
:10758000FED73F2EFCD7402EFAD70CEF3BF0020E71
:107590003D183E10D8A4CFEF3AF0D1EF3AF00CEFFF
:1075A0003BF0000E336E2D0E326E000E356E000E67
:1075B000346ED1EC3BF00B0E406E260E3F6E5E0E2D
:1075C000E82EFED73F2EFCD7402EFAD7000E026ED3
:1075D000010E016E000E046E000E036E0DEC38F00D
:1075E000880E026EB80E016E37EC38F0000E026E97
:1075F000000E016E000E046E000E036E0DEC38F0EE
:10760000000E336E2D0E326E000E356E010E346E8E
:10761000D1EC3BF0BAEF3AF01200000E136E000E00
:10762000146EB40E156E400E166E32C001F033C0EB
:1076300002F0036A046A000E59EC3DF001C00FF03D
:1076400002C010F003C011F004C012F033EC3EF0A1
:107650000FC028F010C029F011C02AF012C02BF082
:10766000F5EC39F028C03BF029C03CF0345035101F
:10767000D8A43DEF3BF03FEF3BF084EF3BF0000E32
:10768000386E000E376E77EF3BF08188819A819CCF
:10769000819E0B0E366E620EE82EFED7362EFCD77C
:1076A00000D08198818A819C819E0B0E366E620E7D
:1076B000E82EFED7362EFCD700D08198819A818C97
:1076C000819E0B0E366E620EE82EFED7362EFCD74C
:1076D00000D08198819A819C818E0B0E366E620E4D
:1076E000E82EFED7362EFCD700D0374A382A3B503A
:1076F000375C3C503858D8A080EF3BF082EF3BF02D
:1077000045EF3BF0D0EF3BF034043510D8A48BEFBD
:107710003BF08DEF3BF0D0EF3BF0000E3A6E000EE9
:10772000396EC5EF3BF08198819A819C818E0B0E5A
:10773000366E620EE82EFED7362EFCD700D081982A
:10774000819A818C819E0B0E366E620EE82EFED7DA
:10775000362EFCD700D08198818A819C819E0B0EA9
:10776000366E620EE82EFED7362EFCD700D081880A
:10777000819A819C819E0B0E366E620EE82EFED79A
:10778000362EFCD700D0394A3A2A3B50395C3C505F
:107790003A58D8A0CEEF3BF0D0EF3BF093EF3BF060
:1077A0001200000E136E000E146EB40E156E400E15
:1077B000166E32C001F033C002F0036A046A000E94
:1077C00059EC3DF001C00FF002C010F003C011F001
:1077D00004C012F033EC3EF00FC028F010C029F0C6
:1077E00011C02AF012C02BF0F5EC39F028C03BF0A4
:1077F00029C03CF034503510D8A401EF3CF003EF21
:107800003CF048EF3CF0000E386E000E376E3BEF58
:107810003CF081808192819481960B0E366E620ECF
:10782000E82EFED7362EFCD700D08190818281943D
:1078300081960B0E366E620EE82EFED7362EFCD7E2
:1078400000D081908192818481960B0E366E620EFB
:10785000E82EFED7362EFCD700D0819081928194FD
:1078600081860B0E366E620EE82EFED7362EFCD7C2
:1078700000D0374A382A3B50375C3C503858D8A0A3
:1078800044EF3CF046EF3CF009EF3CF094EF3CF065
:1078900034043510D8A44FEF3CF051EF3CF094EF96
:1078A0003CF0000E3A6E000E396E89EF3CF081908C
:1078B0008192819481860B0E366E620EE82EFED781
:1078C000362EFCD700D081908192818481960B0E58
:1078D000366E620EE82EFED7362EFCD700D0819091
:1078E0008182819481960B0E366E620EE82EFED751
:1078F000362EFCD700D081808192819481960B0E28
:10790000366E620EE82EFED7362EFCD700D0394AEE
:107910003A2A3B50395C3C503A58D8A092EF3CF0A0
:1079200094EF3CF057EF3CF01200000E136E000E87
:10793000146EB40E156E400E166E32C001F033C0D8
:1079400002F0036A046A000E59EC3DF001C00FF02A
:1079500002C010F003C011F004C012F033EC3EF08E
:107960000FC028F010C029F011C02AF012C02BF06F
:10797000F5EC39F028C03BF029C03CF0345035100C
:10798000D8A4C5EF3CF0C7EF3CF00CEF3DF0000E83
:10799000386E000E376EFFEF3CF080848096809842
:1079A000809A0B0E366E620EE82EFED7362EFCD76E
:1079B00000D0809480868098809A0B0E366E620E7E
:1079C000E82EFED7362EFCD700D080948096808893
:1079D000809A0B0E366E620EE82EFED7362EFCD73E
:1079E00000D0809480968098808A0B0E366E620E4E
:1079F000E82EFED7362EFCD700D0374A382A3B5027
:107A0000375C3C503858D8A008EF3DF00AEF3DF005
:107A1000CDEF3CF058EF3DF034043510D8A413EF0F
:107A20003DF015EF3DF058EF3DF0000E3A6E000EC0
:107A3000396E4DEF3DF0809480968098808A0B0ED1
:107A4000366E620EE82EFED7362EFCD700D080941C
:107A500080968088809A0B0E366E620EE82EFED7D6
:107A6000362EFCD700D0809480868098809A0B0EAA
:107A7000366E620EE82EFED7362EFCD700D08084FC
:107A800080968098809A0B0E366E620EE82EFED796
:107A9000362EFCD700D0394A3A2A3B50395C3C504C
:107AA0003A58D8A056EF3DF058EF3DF01BEF3DF0AF
:107AB0001200096E0950D8B460EF3DF062EF3DF05E
:107AC00084EF3DF004BE69EF3DF067EF3DF084EFD9
:107AD0003DF001C005F002C006F003C007F004C08D
:107AE00008F0051E061E071E081E052A000E0622A7
:107AF0000722082205C00BF006C00CF007C00DF0ED
:107B000008C00EF08CEF3DF001C00BF002C00CF08D
:107B100003C00DF004C00EF0015002100310041059
:107B2000D8A495EF3DF097EF3DF0A1EF3DF0000EAA
:107B3000016E000E026E000E036E000E046E32EF38
:107B40003EF0960E0A6EABEF3DF00A2AD8900E3248
:107B50000D320C320B32000E0B14056E000E0C149D
:107B6000066E000E0D14076EFE0E0E14086E055004
:107B7000061007100810D8A4C0EF3DF0C2EF3DF08A
:107B8000A5EF3DF0D0EF3DF00A2A010E0B26000EC6
:107B90000C220D220E22D8900E320D320C320B32F6
:107BA000000E0B14056E000E0C14066E000E0D1464
:107BB000076EFF0E0E14086E055006100710081011
:107BC000D8A4E5EF3DF0E7EF3DF0C4EF3DF0EFEF77
:107BD0003DF00A06D8900B360C360D360E360DBE2B
:107BE000F4EF3DF0F6EF3DF0FEEF3DF0020E0A60DF
:107BF000FCEF3DF0FEEF3DF0E9EF3DF00AB003EFA2
:107C00003EF005EF3EF006EF3EF00D9ED8900A32B2
:107C10000AC005F0066A076A086A05C008F0076A24
:107C2000066A056A05500B1206500C1207500D1219
:107C300008500E120950D8B420EF3EF022EF3EF06B
:107C40002AEF3EF004BE29EF3EF027EF3EF02AEF88
:107C50003EF00E8E0BC001F00CC002F00DC003F020
:107C60000EC004F012001250800B1F6E125012242E
:107C7000266E11AE3EEF3EF040EF3EF041EF3EF09B
:107C800026802650D8B447EF3EF049EF3EF05EEF35
:107C90003EF02628D8A44FEF3EF051EF3EF059EFCA
:107CA0003EF0000E0F6E000E106E000E116E000EF4
:107CB000126E118E000E126E66EF3EF0000E0F6E09
:107CC000000E106E000E116E000E126E1650800B1C
:107CD0001F1A16501624276E15AE71EF3EF073EF83
:107CE0003EF074EF3EF027802750D8B47AEF3EF094
:107CF0007CEF3EF091EF3EF02728D8A482EF3EF0D3
:107D000084EF3EF08CEF3EF0000E136E000E146E0A
:107D1000000E156E000E166E158E000E166E99EF83
:107D20003EF0000E136E000E146E000E156E000E67
:107D3000166E1350141015101610D8A4A2EF3EF0B2
:107D4000A4EF3EF0BCEF3EF0000E0F6E000E106E82
:107D5000000E116E000E126E800E11127F0E1212A6
:107D60001F5012120FC00FF010C010F011C011F010
:107D700012C012F0FFEF3FF02650D8A4C2EF3EF041
:107D8000C4EF3EF0CEEF3EF0000E0F6E000E106E10
:107D9000000E116E000E126EFFEF3FF0275026C04E
:107DA00017F0186A175E000E185A7F0E1724206EFF
:107DB000000E1820216E0FC01BF010C01CF011C067
:107DC0001DF012C01EF0000E0F6E000E106E000EA1
:107DD000116E000E126E000E226E000E236E000E4B
:107DE000246E000E256E000E276E2FEF3FF02750F9
:107DF000D8B4FDEF3EF0FFEF3EF016EF3FF0D89025
:107E00001B361C361D361E36D8900F3610361136EE
:107E1000123625AE0EEF3FF010EF3FF011EF3FF0BE
:107E20000F80D890223623362436253613501B5C1B
:107E300014501C5815501D5816501E58D8A023EF2A
:107E40003FF025EF3FF02EEF3FF0258C13501B5EE7
:107E500014501C5A15501D5A16501E5A272A190E16
:107E6000276435EF3FF037EF3FF0F7EF3EF01B5060
:107E70001C101D101E10D8B440EF3FF042EF3FF031
:107E80005AEF3FF022805AEF3FF0D8900F3610366D
:107E90001136123625AE4FEF3FF051EF3FF052EF63
:107EA0003FF00F80D8902236233624362536200620
:107EB000D8A0210611AE5FEF3FF061EF3FF045EF34
:107EC0003FF0000E276E25AE68EF3FF06AEF3FF0FF
:107ED0008EEF3FF0FF0E2214176EFF0E2314186E64
:107EE000FF0E2414196E7F0E25141A6E17501810E9
:107EF00019101A10D8B47FEF3FF081EF3FF085EFF3
:107F00003FF0010E276E8EEF3FF00FA08AEF3FF09B
:107F10008CEF3FF08EEF3FF081EF3FF02750D8B469
:107F200094EF3FF096EF3FF0BAEF3FF0010E0F26CF
:107F3000000E10221122122212A0A1EF3FF0A3EF97
:107F40003FF0BAEF3FF00FC017F010C018F011C0AB
:107F500019F012C01AF01A341A32193218321732C4
:107F600017C00FF018C010F019C011F01AC012F0AD
:107F7000204A212A21BEC5EF3FF0215008E12028E8
:107F8000D8A0C5EF3FF0C7EF3FF0D2EF3FF0000EB3
:107F9000216E2068000E0F6E000E106E000E116E26
:107FA000000E126E21BEDFEF3FF0215006E12004EB
:107FB000D8B0DDEF3FF0DFEF3FF0EDEF3FF0000E28
:107FC000216E000E206E000E0F6E000E106E000E61
:107FD000116E000E126E000E1F6E20C026F026A03D
:107FE000F4EF3FF0F6EF3FF0F9EF3FF0118EFAEFCC
:107FF0003FF0119ED8902630126EB0EF3EF0120086
:020000040020DA
:08000000FFFFFFFFFFFFFFFF00
:020000040030CA
:0E00000000051F1FFF8385FF0FC00FE00F409C
:00000001FF
